{
  "contractName": "Election",
  "abi": [
    {
      "inputs": [],
      "payable": false,
      "stateMutability": "nonpayable",
      "type": "constructor"
    },
    {
      "anonymous": false,
      "inputs": [
        {
          "indexed": true,
          "internalType": "uint256",
          "name": "_candidateId",
          "type": "uint256"
        }
      ],
      "name": "votedEvent",
      "type": "event"
    },
    {
      "constant": true,
      "inputs": [
        {
          "internalType": "uint256",
          "name": "",
          "type": "uint256"
        }
      ],
      "name": "candidates",
      "outputs": [
        {
          "internalType": "uint256",
          "name": "id",
          "type": "uint256"
        },
        {
          "internalType": "string",
          "name": "name",
          "type": "string"
        },
        {
          "internalType": "string",
          "name": "party",
          "type": "string"
        },
        {
          "internalType": "uint256",
          "name": "voteCount",
          "type": "uint256"
        }
      ],
      "payable": false,
      "stateMutability": "view",
      "type": "function"
    },
    {
      "constant": true,
      "inputs": [],
      "name": "candidatesCount",
      "outputs": [
        {
          "internalType": "uint256",
          "name": "",
          "type": "uint256"
        }
      ],
      "payable": false,
      "stateMutability": "view",
      "type": "function"
    },
    {
      "constant": true,
      "inputs": [
        {
          "internalType": "address",
          "name": "",
          "type": "address"
        }
      ],
      "name": "voters",
      "outputs": [
        {
          "internalType": "bool",
          "name": "",
          "type": "bool"
        }
      ],
      "payable": false,
      "stateMutability": "view",
      "type": "function"
    },
    {
      "constant": false,
      "inputs": [
        {
          "internalType": "uint256",
          "name": "_candidateId",
          "type": "uint256"
        }
      ],
      "name": "vote",
      "outputs": [],
      "payable": false,
      "stateMutability": "nonpayable",
      "type": "function"
    }
  ],
  "bytecode": "0x608060405234801561001057600080fd5b5061008b6040518060400160405280600781526020017f52616d20446173000000000000000000000000000000000000000000000000008152506040518060400160405280601681526020017f426861726174697961204a616e6174612050617274790000000000000000000081525061025b60201b60201c565b6101056040518060400160405280600e81526020017f53616e6b6172204d616c616b61720000000000000000000000000000000000008152506040518060400160405280601881526020017f496e6469616e204e6174696f6e616c20436f6e6772657373000000000000000081525061025b60201b60201c565b6101626040518060400160405280600c81526020017f53756d616e2050617468616b00000000000000000000000000000000000000008152506040518060600160405280602281526020016108a26022913961025b60201b60201c565b6101dc6040518060400160405280600b81526020017f4b6f6d6f6c61204e6174680000000000000000000000000000000000000000008152506040518060400160405280601c81526020017f416c6c20496e646961205472696e616d6f6f6c20436f6e67726573730000000081525061025b60201b60201c565b6102566040518060400160405280600481526020017f4e4f5441000000000000000000000000000000000000000000000000000000008152506040518060400160405280601181526020017f4e6f6e65206f66207468652061626f766500000000000000000000000000000081525061025b60201b60201c565b6103a0565b6002600081548092919060010191905055506040518060800160405280600254815260200183815260200182815260200160008152506001600060025481526020019081526020016000206000820151816000015560208201518160010190805190602001906102cc9291906102fb565b5060408201518160020190805190602001906102e99291906102fb565b50606082015181600301559050505050565b828054600181600116156101000203166002900490600052602060002090601f016020900481019282601f1061033c57805160ff191683800117855561036a565b8280016001018555821561036a579182015b8281111561036957825182559160200191906001019061034e565b5b509050610377919061037b565b5090565b61039d91905b80821115610399576000816000905550600101610381565b5090565b90565b6104f3806103af6000396000f3fe608060405234801561001057600080fd5b506004361061004c5760003560e01c80630121b93f146100515780632d35a8a21461007f5780633477ee2e1461009d578063a3ec138d146101be575b600080fd5b61007d6004803603602081101561006757600080fd5b810190808035906020019092919050505061021a565b005b610087610338565b6040518082815260200191505060405180910390f35b6100c9600480360360208110156100b357600080fd5b810190808035906020019092919050505061033e565b604051808581526020018060200180602001848152602001838103835286818151815260200191508051906020019080838360005b838110156101195780820151818401526020810190506100fe565b50505050905090810190601f1680156101465780820380516001836020036101000a031916815260200191505b50838103825285818151815260200191508051906020019080838360005b8381101561017f578082015181840152602081019050610164565b50505050905090810190601f1680156101ac5780820380516001836020036101000a031916815260200191505b50965050505050505060405180910390f35b610200600480360360208110156101d457600080fd5b81019080803573ffffffffffffffffffffffffffffffffffffffff16906020019092919050505061049e565b604051808215151515815260200191505060405180910390f35b6000803373ffffffffffffffffffffffffffffffffffffffff1673ffffffffffffffffffffffffffffffffffffffff16815260200190815260200160002060009054906101000a900460ff161561027057600080fd5b60008111801561028257506002548111155b61028b57600080fd5b60016000803373ffffffffffffffffffffffffffffffffffffffff1673ffffffffffffffffffffffffffffffffffffffff16815260200190815260200160002060006101000a81548160ff0219169083151502179055506001600082815260200190815260200160002060030160008154809291906001019190505550807ffff3c900d938d21d0990d786e819f29b8d05c1ef587b462b939609625b684b1660405160405180910390a250565b60025481565b6001602052806000526040600020600091509050806000015490806001018054600181600116156101000203166002900480601f0160208091040260200160405190810160405280929190818152602001828054600181600116156101000203166002900480156103f05780601f106103c5576101008083540402835291602001916103f0565b820191906000526020600020905b8154815290600101906020018083116103d357829003601f168201915b505050505090806002018054600181600116156101000203166002900480601f01602080910402602001604051908101604052809291908181526020018280546001816001161561010002031660029004801561048e5780601f106104635761010080835404028352916020019161048e565b820191906000526020600020905b81548152906001019060200180831161047157829003601f168201915b5050505050908060030154905084565b60006020528060005260406000206000915054906101000a900460ff168156fea265627a7a72315820909f2577d05f05d3652d0bf6b43471576aab5dabfafcbf16884623159d63e9f864736f6c63430005100032436f6d6d756e697374205061727479204f6620496e64696120284d61727869737429",
  "source": "pragma solidity >=0.5.16;\r\n\r\ncontract Election {\r\n    // Model a Candidate\r\n    struct Candidate {\r\n        uint id;\r\n        string name;\r\n        string party;\r\n        uint voteCount;\r\n    }\r\n\r\n    // Store accounts that have voted\r\n    mapping(address => bool) public voters;\r\n    // Store Candidates\r\n    // Fetch Candidate\r\n    mapping(uint => Candidate) public candidates;\r\n    // Store Candidates Count\r\n    uint public candidatesCount;\r\n\r\n    // voted event\r\n    event votedEvent (\r\n        uint indexed _candidateId\r\n    );\r\n\r\n    constructor () public {\r\n        addCandidate(\"Ram Das\",\"Bharatiya Janata Party\");\r\n        addCandidate(\"Sankar Malakar\",\"Indian National Congress\");\r\n        addCandidate(\"Suman Pathak\",\"Communist Party Of India (Marxist)\");\r\n        addCandidate(\"Komola Nath\",\"All India Trinamool Congress\");\r\n        //addCandidate(\"Sudip Mandal\",\"Bahujan Samaj Party\");\r\n        addCandidate(\"NOTA\",\"None of the above\");\r\n    }\r\n\r\n    function addCandidate (string memory name,string memory party) private {\r\n        candidatesCount ++;\r\n        candidates[candidatesCount] = Candidate(candidatesCount, name,party, 0);\r\n    }\r\n\r\n    function vote (uint _candidateId) public {\r\n        // require that they haven't voted before\r\n        require(!voters[msg.sender]);\r\n\r\n        // require a valid candidate\r\n        require(_candidateId > 0 && _candidateId <= candidatesCount);\r\n\r\n        // record that voter has voted\r\n        voters[msg.sender] = true;\r\n\r\n        // update candidate vote Count\r\n        candidates[_candidateId].voteCount ++;\r\n\r\n        // trigger voted event\r\n        emit votedEvent(_candidateId);\r\n    }\r\n}",
  "sourcePath": "D:\\6th sem pro\\BlockVote\\contracts\\Election.sol",
  "compiler": {
    "name": "solc",
    "version": "0.5.16+commit.9c3226ce.Emscripten.clang"
  },
  "schemaVersion": "3.4.7",
  "updatedAt": "2022-06-28T19:04:16.760Z",
  "networkType": "ethereum",
  "devdoc": {
    "methods": {}
  },
  "userdoc": {
    "methods": {}
  }
}